{
  "contracts/PerUserCctpSettlement.sol": {
    "PerUserCctpSettlement": {
      "abi": [
        {
          "inputs": [
            {
              "internalType": "address",
              "name": "_usdc",
              "type": "address"
            },
            {
              "internalType": "address",
              "name": "_tokenMessenger",
              "type": "address"
            },
            {
              "internalType": "address",
              "name": "_ethereumMintRecipient",
              "type": "address"
            }
          ],
          "stateMutability": "nonpayable",
          "type": "constructor"
        },
        {
          "inputs": [],
          "name": "ReentrancyGuardReentrantCall",
          "type": "error"
        },
        {
          "inputs": [
            {
              "internalType": "address",
              "name": "token",
              "type": "address"
            }
          ],
          "name": "SafeERC20FailedOperation",
          "type": "error"
        },
        {
          "anonymous": false,
          "inputs": [
            {
              "indexed": true,
              "internalType": "address",
              "name": "caller",
              "type": "address"
            },
            {
              "indexed": false,
              "internalType": "uint256",
              "name": "usdcAmount",
              "type": "uint256"
            },
            {
              "indexed": false,
              "internalType": "uint32",
              "name": "destinationDomain",
              "type": "uint32"
            },
            {
              "indexed": false,
              "internalType": "bytes32",
              "name": "mintRecipient",
              "type": "bytes32"
            },
            {
              "indexed": false,
              "internalType": "bytes32",
              "name": "destinationCaller",
              "type": "bytes32"
            },
            {
              "indexed": false,
              "internalType": "uint256",
              "name": "maxFee",
              "type": "uint256"
            },
            {
              "indexed": false,
              "internalType": "uint32",
              "name": "minFinalityThreshold",
              "type": "uint32"
            },
            {
              "indexed": false,
              "internalType": "bytes32",
              "name": "forwardHookData",
              "type": "bytes32"
            }
          ],
          "name": "UsdcSweptAndForwarded",
          "type": "event"
        },
        {
          "inputs": [],
          "name": "DESTINATION_CALLER",
          "outputs": [
            {
              "internalType": "bytes32",
              "name": "",
              "type": "bytes32"
            }
          ],
          "stateMutability": "view",
          "type": "function"
        },
        {
          "inputs": [],
          "name": "ETHEREUM_DESTINATION_DOMAIN",
          "outputs": [
            {
              "internalType": "uint32",
              "name": "",
              "type": "uint32"
            }
          ],
          "stateMutability": "view",
          "type": "function"
        },
        {
          "inputs": [],
          "name": "FORWARD_HOOK_DATA",
          "outputs": [
            {
              "internalType": "bytes32",
              "name": "",
              "type": "bytes32"
            }
          ],
          "stateMutability": "view",
          "type": "function"
        },
        {
          "inputs": [],
          "name": "ethereumMintRecipient",
          "outputs": [
            {
              "internalType": "address",
              "name": "",
              "type": "address"
            }
          ],
          "stateMutability": "view",
          "type": "function"
        },
        {
          "inputs": [],
          "name": "mintRecipientBytes32",
          "outputs": [
            {
              "internalType": "bytes32",
              "name": "",
              "type": "bytes32"
            }
          ],
          "stateMutability": "view",
          "type": "function"
        },
        {
          "inputs": [
            {
              "internalType": "uint256",
              "name": "usdcAmount",
              "type": "uint256"
            },
            {
              "internalType": "uint256",
              "name": "maxFee",
              "type": "uint256"
            },
            {
              "internalType": "uint32",
              "name": "minFinalityThreshold",
              "type": "uint32"
            }
          ],
          "name": "sweepUsdc",
          "outputs": [],
          "stateMutability": "nonpayable",
          "type": "function"
        },
        {
          "inputs": [],
          "name": "tokenMessenger",
          "outputs": [
            {
              "internalType": "contract ITokenMessengerV2",
              "name": "",
              "type": "address"
            }
          ],
          "stateMutability": "view",
          "type": "function"
        },
        {
          "inputs": [],
          "name": "usdc",
          "outputs": [
            {
              "internalType": "contract IERC20",
              "name": "",
              "type": "address"
            }
          ],
          "stateMutability": "view",
          "type": "function"
        }
      ],
      "evm": {
        "bytecode": {
          "linkReferences": {},
          "object": "610100604052348015610010575f5ffd5b5060405161099938038061099983398101604081905261002f9161016e565b60017f9b779b17422d0df92223018b32b4d1fa46e071723d6817e2486d003becc55f00556001600160a01b03831661009d5760405162461bcd60e51b815260206004820152600c60248201526b496e76616c6964205553444360a01b60448201526064015b60405180910390fd5b6001600160a01b0382166100e75760405162461bcd60e51b815260206004820152601160248201527024b73b30b634b21036b2b9b9b2b733b2b960791b6044820152606401610094565b6001600160a01b0381166101315760405162461bcd60e51b8152602060048201526011602482015270125b9d985b1a59081c9958da5c1a595b9d607a1b6044820152606401610094565b6001600160a01b0392831660805290821660a0521660c081905260e0526101ae565b80516001600160a01b0381168114610169575f5ffd5b919050565b5f5f5f60608486031215610180575f5ffd5b61018984610153565b925061019760208501610153565b91506101a560408501610153565b90509250925092565b60805160a05160c05160e05161077c61021d5f395f818161016701528181610348015261047701525f608e01525f818160f9015281816102f001528181610317015261044101525f818160d201528181610202015281816102ce01528181610369015261041d015261077c5ff3fe608060405234801561000f575f5ffd5b5060043610610085575f3560e01c8063acef1c5711610058578063acef1c5714610130578063c6db9c871461014c578063c74ee95714610162578063dccf984614610189575f5ffd5b806309bdf150146100895780633e413bee146100cd57806346117830146100f457806362cef4b91461011b575b5f5ffd5b6100b07f000000000000000000000000000000000000000000000000000000000000000081565b6040516001600160a01b0390911681526020015b60405180910390f35b6100b07f000000000000000000000000000000000000000000000000000000000000000081565b6100b07f000000000000000000000000000000000000000000000000000000000000000081565b6101225f81565b6040519081526020016100c4565b6101375f81565b60405163ffffffff90911681526020016100c4565b6101226b18d8dd1c0b599bdc9dd85c9960a21b81565b6101227f000000000000000000000000000000000000000000000000000000000000000081565b61019c610197366004610672565b61019e565b005b6101a6610524565b5f83116101eb5760405162461bcd60e51b815260206004820152600e60248201526d125b9d985b1a5908185b5bdd5b9d60921b60448201526064015b60405180910390fd5b6040516370a0823160e01b815230600482015283907f00000000000000000000000000000000000000000000000000000000000000006001600160a01b0316906370a0823190602401602060405180830381865afa15801561024f573d5f5f3e3d5ffd5b505050506040513d601f19601f8201168201806040525081019061027391906106b0565b10156102c15760405162461bcd60e51b815260206004820152601960248201527f496e73756666696369656e7420555344432062616c616e63650000000000000060448201526064016101e2565b6103156001600160a01b037f0000000000000000000000000000000000000000000000000000000000000000167f000000000000000000000000000000000000000000000000000000000000000085610552565b7f00000000000000000000000000000000000000000000000000000000000000006001600160a01b031663779b432d845f7f00000000000000000000000000000000000000000000000000000000000000007f00000000000000000000000000000000000000000000000000000000000000005f5f1b88886b18d8dd1c0b599bdc9dd85c9960a21b5f1b6040516020016103b191815260200190565b6040516020818303038152906040526040518963ffffffff1660e01b81526004016103e39897969594939291906106c7565b5f604051808303815f87803b1580156103fa575f5ffd5b505af115801561040c573d5f5f3e3d5ffd5b506104669250506001600160a01b037f00000000000000000000000000000000000000000000000000000000000000001690507f00000000000000000000000000000000000000000000000000000000000000005f610552565b604080518481525f602082018190527f00000000000000000000000000000000000000000000000000000000000000008284015260608201526080810184905263ffffffff831660a08201526b18d8dd1c0b599bdc9dd85c9960a21b60c0820152905133917f3f298cacaefadf0a6bfef4dfeeaf3eca0c68d70e5cb8f1b5288e7540a9e95ed6919081900360e00190a261051f60017f9b779b17422d0df92223018b32b4d1fa46e071723d6817e2486d003becc55f0055565b505050565b61052c6105cc565b60027f9b779b17422d0df92223018b32b4d1fa46e071723d6817e2486d003becc55f0055565b61055e8383835f610610565b61051f5761056f83835f6001610610565b61059757604051635274afe760e01b81526001600160a01b03841660048201526024016101e2565b6105a48383836001610610565b61051f57604051635274afe760e01b81526001600160a01b03841660048201526024016101e2565b7f9b779b17422d0df92223018b32b4d1fa46e071723d6817e2486d003becc55f005460020361060e57604051633ee5aeb560e01b815260040160405180910390fd5b565b60405163095ea7b360e01b5f8181526001600160a01b038616600452602485905291602083604481808b5af1925060015f5114831661066657838315161561065a573d5f823e3d81fd5b5f873b113d1516831692505b60405250949350505050565b5f5f5f60608486031215610684575f5ffd5b8335925060208401359150604084013563ffffffff811681146106a5575f5ffd5b809150509250925092565b5f602082840312156106c0575f5ffd5b5051919050565b88815263ffffffff8816602082015286604082015260018060a01b03861660608201528460808201528360a082015263ffffffff831660c082015261010060e08201525f825180610100840152806020850161012085015e5f6101208285010152610120601f19601f830116840101915050999850505050505050505056fea2646970667358221220b76c50a6e2d835a1079f67de279f46d3362268b2a2daa5b5e1a88be179ff8e9164736f6c634300081c0033",
          "opcodes": "PUSH2 0x100 PUSH1 0x40 MSTORE CALLVALUE DUP1 ISZERO PUSH2 0x10 JUMPI PUSH0 PUSH0 REVERT JUMPDEST POP PUSH1 0x40 MLOAD PUSH2 0x999 CODESIZE SUB DUP1 PUSH2 0x999 DUP4 CODECOPY DUP2 ADD PUSH1 0x40 DUP2 SWAP1 MSTORE PUSH2 0x2F SWAP2 PUSH2 0x16E JUMP JUMPDEST PUSH1 0x1 PUSH32 0x9B779B17422D0DF92223018B32B4D1FA46E071723D6817E2486D003BECC55F00 SSTORE PUSH1 0x1 PUSH1 0x1 PUSH1 0xA0 SHL SUB DUP4 AND PUSH2 0x9D JUMPI PUSH1 0x40 MLOAD PUSH3 0x461BCD PUSH1 0xE5 SHL DUP2 MSTORE PUSH1 0x20 PUSH1 0x4 DUP3 ADD MSTORE PUSH1 0xC PUSH1 0x24 DUP3 ADD MSTORE PUSH12 0x496E76616C69642055534443 PUSH1 0xA0 SHL PUSH1 0x44 DUP3 ADD MSTORE PUSH1 0x64 ADD JUMPDEST PUSH1 0x40 MLOAD DUP1 SWAP2 SUB SWAP1 REVERT JUMPDEST PUSH1 0x1 PUSH1 0x1 PUSH1 0xA0 SHL SUB DUP3 AND PUSH2 0xE7 JUMPI PUSH1 0x40 MLOAD PUSH3 0x461BCD PUSH1 0xE5 SHL DUP2 MSTORE PUSH1 0x20 PUSH1 0x4 DUP3 ADD MSTORE PUSH1 0x11 PUSH1 0x24 DUP3 ADD MSTORE PUSH17 0x24B73B30B634B21036B2B9B9B2B733B2B9 PUSH1 0x79 SHL PUSH1 0x44 DUP3 ADD MSTORE PUSH1 0x64 ADD PUSH2 0x94 JUMP JUMPDEST PUSH1 0x1 PUSH1 0x1 PUSH1 0xA0 SHL SUB DUP2 AND PUSH2 0x131 JUMPI PUSH1 0x40 MLOAD PUSH3 0x461BCD PUSH1 0xE5 SHL DUP2 MSTORE PUSH1 0x20 PUSH1 0x4 DUP3 ADD MSTORE PUSH1 0x11 PUSH1 0x24 DUP3 ADD MSTORE PUSH17 0x125B9D985B1A59081C9958DA5C1A595B9D PUSH1 0x7A SHL PUSH1 0x44 DUP3 ADD MSTORE PUSH1 0x64 ADD PUSH2 0x94 JUMP JUMPDEST PUSH1 0x1 PUSH1 0x1 PUSH1 0xA0 SHL SUB SWAP3 DUP4 AND PUSH1 0x80 MSTORE SWAP1 DUP3 AND PUSH1 0xA0 MSTORE AND PUSH1 0xC0 DUP2 SWAP1 MSTORE PUSH1 0xE0 MSTORE PUSH2 0x1AE JUMP JUMPDEST DUP1 MLOAD PUSH1 0x1 PUSH1 0x1 PUSH1 0xA0 SHL SUB DUP2 AND DUP2 EQ PUSH2 0x169 JUMPI PUSH0 PUSH0 REVERT JUMPDEST SWAP2 SWAP1 POP JUMP JUMPDEST PUSH0 PUSH0 PUSH0 PUSH1 0x60 DUP5 DUP7 SUB SLT ISZERO PUSH2 0x180 JUMPI PUSH0 PUSH0 REVERT JUMPDEST PUSH2 0x189 DUP5 PUSH2 0x153 JUMP JUMPDEST SWAP3 POP PUSH2 0x197 PUSH1 0x20 DUP6 ADD PUSH2 0x153 JUMP JUMPDEST SWAP2 POP PUSH2 0x1A5 PUSH1 0x40 DUP6 ADD PUSH2 0x153 JUMP JUMPDEST SWAP1 POP SWAP3 POP SWAP3 POP SWAP3 JUMP JUMPDEST PUSH1 0x80 MLOAD PUSH1 0xA0 MLOAD PUSH1 0xC0 MLOAD PUSH1 0xE0 MLOAD PUSH2 0x77C PUSH2 0x21D PUSH0 CODECOPY PUSH0 DUP2 DUP2 PUSH2 0x167 ADD MSTORE DUP2 DUP2 PUSH2 0x348 ADD MSTORE PUSH2 0x477 ADD MSTORE PUSH0 PUSH1 0x8E ADD MSTORE PUSH0 DUP2 DUP2 PUSH1 0xF9 ADD MSTORE DUP2 DUP2 PUSH2 0x2F0 ADD MSTORE DUP2 DUP2 PUSH2 0x317 ADD MSTORE PUSH2 0x441 ADD MSTORE PUSH0 DUP2 DUP2 PUSH1 0xD2 ADD MSTORE DUP2 DUP2 PUSH2 0x202 ADD MSTORE DUP2 DUP2 PUSH2 0x2CE ADD MSTORE DUP2 DUP2 PUSH2 0x369 ADD MSTORE PUSH2 0x41D ADD MSTORE PUSH2 0x77C PUSH0 RETURN INVALID PUSH1 0x80 PUSH1 0x40 MSTORE CALLVALUE DUP1 ISZERO PUSH2 0xF JUMPI PUSH0 PUSH0 REVERT JUMPDEST POP PUSH1 0x4 CALLDATASIZE LT PUSH2 0x85 JUMPI PUSH0 CALLDATALOAD PUSH1 0xE0 SHR DUP1 PUSH4 0xACEF1C57 GT PUSH2 0x58 JUMPI DUP1 PUSH4 0xACEF1C57 EQ PUSH2 0x130 JUMPI DUP1 PUSH4 0xC6DB9C87 EQ PUSH2 0x14C JUMPI DUP1 PUSH4 0xC74EE957 EQ PUSH2 0x162 JUMPI DUP1 PUSH4 0xDCCF9846 EQ PUSH2 0x189 JUMPI PUSH0 PUSH0 REVERT JUMPDEST DUP1 PUSH4 0x9BDF150 EQ PUSH2 0x89 JUMPI DUP1 PUSH4 0x3E413BEE EQ PUSH2 0xCD JUMPI DUP1 PUSH4 0x46117830 EQ PUSH2 0xF4 JUMPI DUP1 PUSH4 0x62CEF4B9 EQ PUSH2 0x11B JUMPI JUMPDEST PUSH0 PUSH0 REVERT JUMPDEST PUSH2 0xB0 PUSH32 0x0 DUP2 JUMP JUMPDEST PUSH1 0x40 MLOAD PUSH1 0x1 PUSH1 0x1 PUSH1 0xA0 SHL SUB SWAP1 SWAP2 AND DUP2 MSTORE PUSH1 0x20 ADD JUMPDEST PUSH1 0x40 MLOAD DUP1 SWAP2 SUB SWAP1 RETURN JUMPDEST PUSH2 0xB0 PUSH32 0x0 DUP2 JUMP JUMPDEST PUSH2 0xB0 PUSH32 0x0 DUP2 JUMP JUMPDEST PUSH2 0x122 PUSH0 DUP2 JUMP JUMPDEST PUSH1 0x40 MLOAD SWAP1 DUP2 MSTORE PUSH1 0x20 ADD PUSH2 0xC4 JUMP JUMPDEST PUSH2 0x137 PUSH0 DUP2 JUMP JUMPDEST PUSH1 0x40 MLOAD PUSH4 0xFFFFFFFF SWAP1 SWAP2 AND DUP2 MSTORE PUSH1 0x20 ADD PUSH2 0xC4 JUMP JUMPDEST PUSH2 0x122 PUSH12 0x18D8DD1C0B599BDC9DD85C99 PUSH1 0xA2 SHL DUP2 JUMP JUMPDEST PUSH2 0x122 PUSH32 0x0 DUP2 JUMP JUMPDEST PUSH2 0x19C PUSH2 0x197 CALLDATASIZE PUSH1 0x4 PUSH2 0x672 JUMP JUMPDEST PUSH2 0x19E JUMP JUMPDEST STOP JUMPDEST PUSH2 0x1A6 PUSH2 0x524 JUMP JUMPDEST PUSH0 DUP4 GT PUSH2 0x1EB JUMPI PUSH1 0x40 MLOAD PUSH3 0x461BCD PUSH1 0xE5 SHL DUP2 MSTORE PUSH1 0x20 PUSH1 0x4 DUP3 ADD MSTORE PUSH1 0xE PUSH1 0x24 DUP3 ADD MSTORE PUSH14 0x125B9D985B1A5908185B5BDD5B9D PUSH1 0x92 SHL PUSH1 0x44 DUP3 ADD MSTORE PUSH1 0x64 ADD JUMPDEST PUSH1 0x40 MLOAD DUP1 SWAP2 SUB SWAP1 REVERT JUMPDEST PUSH1 0x40 MLOAD PUSH4 0x70A08231 PUSH1 0xE0 SHL DUP2 MSTORE ADDRESS PUSH1 0x4 DUP3 ADD MSTORE DUP4 SWAP1 PUSH32 0x0 PUSH1 0x1 PUSH1 0x1 PUSH1 0xA0 SHL SUB AND SWAP1 PUSH4 0x70A08231 SWAP1 PUSH1 0x24 ADD PUSH1 0x20 PUSH1 0x40 MLOAD DUP1 DUP4 SUB DUP2 DUP7 GAS STATICCALL ISZERO DUP1 ISZERO PUSH2 0x24F JUMPI RETURNDATASIZE PUSH0 PUSH0 RETURNDATACOPY RETURNDATASIZE PUSH0 REVERT JUMPDEST POP POP POP POP PUSH1 0x40 MLOAD RETURNDATASIZE PUSH1 0x1F NOT PUSH1 0x1F DUP3 ADD AND DUP3 ADD DUP1 PUSH1 0x40 MSTORE POP DUP2 ADD SWAP1 PUSH2 0x273 SWAP2 SWAP1 PUSH2 0x6B0 JUMP JUMPDEST LT ISZERO PUSH2 0x2C1 JUMPI PUSH1 0x40 MLOAD PUSH3 0x461BCD PUSH1 0xE5 SHL DUP2 MSTORE PUSH1 0x20 PUSH1 0x4 DUP3 ADD MSTORE PUSH1 0x19 PUSH1 0x24 DUP3 ADD MSTORE PUSH32 0x496E73756666696369656E7420555344432062616C616E636500000000000000 PUSH1 0x44 DUP3 ADD MSTORE PUSH1 0x64 ADD PUSH2 0x1E2 JUMP JUMPDEST PUSH2 0x315 PUSH1 0x1 PUSH1 0x1 PUSH1 0xA0 SHL SUB PUSH32 0x0 AND PUSH32 0x0 DUP6 PUSH2 0x552 JUMP JUMPDEST PUSH32 0x0 PUSH1 0x1 PUSH1 0x1 PUSH1 0xA0 SHL SUB AND PUSH4 0x779B432D DUP5 PUSH0 PUSH32 0x0 PUSH32 0x0 PUSH0 PUSH0 SHL DUP9 DUP9 PUSH12 0x18D8DD1C0B599BDC9DD85C99 PUSH1 0xA2 SHL PUSH0 SHL PUSH1 0x40 MLOAD PUSH1 0x20 ADD PUSH2 0x3B1 SWAP2 DUP2 MSTORE PUSH1 0x20 ADD SWAP1 JUMP JUMPDEST PUSH1 0x40 MLOAD PUSH1 0x20 DUP2 DUP4 SUB SUB DUP2 MSTORE SWAP1 PUSH1 0x40 MSTORE PUSH1 0x40 MLOAD DUP10 PUSH4 0xFFFFFFFF AND PUSH1 0xE0 SHL DUP2 MSTORE PUSH1 0x4 ADD PUSH2 0x3E3 SWAP9 SWAP8 SWAP7 SWAP6 SWAP5 SWAP4 SWAP3 SWAP2 SWAP1 PUSH2 0x6C7 JUMP JUMPDEST PUSH0 PUSH1 0x40 MLOAD DUP1 DUP4 SUB DUP2 PUSH0 DUP8 DUP1 EXTCODESIZE ISZERO DUP1 ISZERO PUSH2 0x3FA JUMPI PUSH0 PUSH0 REVERT JUMPDEST POP GAS CALL ISZERO DUP1 ISZERO PUSH2 0x40C JUMPI RETURNDATASIZE PUSH0 PUSH0 RETURNDATACOPY RETURNDATASIZE PUSH0 REVERT JUMPDEST POP PUSH2 0x466 SWAP3 POP POP PUSH1 0x1 PUSH1 0x1 PUSH1 0xA0 SHL SUB PUSH32 0x0 AND SWAP1 POP PUSH32 0x0 PUSH0 PUSH2 0x552 JUMP JUMPDEST PUSH1 0x40 DUP1 MLOAD DUP5 DUP2 MSTORE PUSH0 PUSH1 0x20 DUP3 ADD DUP2 SWAP1 MSTORE PUSH32 0x0 DUP3 DUP5 ADD MSTORE PUSH1 0x60 DUP3 ADD MSTORE PUSH1 0x80 DUP2 ADD DUP5 SWAP1 MSTORE PUSH4 0xFFFFFFFF DUP4 AND PUSH1 0xA0 DUP3 ADD MSTORE PUSH12 0x18D8DD1C0B599BDC9DD85C99 PUSH1 0xA2 SHL PUSH1 0xC0 DUP3 ADD MSTORE SWAP1 MLOAD CALLER SWAP2 PUSH32 0x3F298CACAEFADF0A6BFEF4DFEEAF3ECA0C68D70E5CB8F1B5288E7540A9E95ED6 SWAP2 SWAP1 DUP2 SWAP1 SUB PUSH1 0xE0 ADD SWAP1 LOG2 PUSH2 0x51F PUSH1 0x1 PUSH32 0x9B779B17422D0DF92223018B32B4D1FA46E071723D6817E2486D003BECC55F00 SSTORE JUMP JUMPDEST POP POP POP JUMP JUMPDEST PUSH2 0x52C PUSH2 0x5CC JUMP JUMPDEST PUSH1 0x2 PUSH32 0x9B779B17422D0DF92223018B32B4D1FA46E071723D6817E2486D003BECC55F00 SSTORE JUMP JUMPDEST PUSH2 0x55E DUP4 DUP4 DUP4 PUSH0 PUSH2 0x610 JUMP JUMPDEST PUSH2 0x51F JUMPI PUSH2 0x56F DUP4 DUP4 PUSH0 PUSH1 0x1 PUSH2 0x610 JUMP JUMPDEST PUSH2 0x597 JUMPI PUSH1 0x40 MLOAD PUSH4 0x5274AFE7 PUSH1 0xE0 SHL DUP2 MSTORE PUSH1 0x1 PUSH1 0x1 PUSH1 0xA0 SHL SUB DUP5 AND PUSH1 0x4 DUP3 ADD MSTORE PUSH1 0x24 ADD PUSH2 0x1E2 JUMP JUMPDEST PUSH2 0x5A4 DUP4 DUP4 DUP4 PUSH1 0x1 PUSH2 0x610 JUMP JUMPDEST PUSH2 0x51F JUMPI PUSH1 0x40 MLOAD PUSH4 0x5274AFE7 PUSH1 0xE0 SHL DUP2 MSTORE PUSH1 0x1 PUSH1 0x1 PUSH1 0xA0 SHL SUB DUP5 AND PUSH1 0x4 DUP3 ADD MSTORE PUSH1 0x24 ADD PUSH2 0x1E2 JUMP JUMPDEST PUSH32 0x9B779B17422D0DF92223018B32B4D1FA46E071723D6817E2486D003BECC55F00 SLOAD PUSH1 0x2 SUB PUSH2 0x60E JUMPI PUSH1 0x40 MLOAD PUSH4 0x3EE5AEB5 PUSH1 0xE0 SHL DUP2 MSTORE PUSH1 0x4 ADD PUSH1 0x40 MLOAD DUP1 SWAP2 SUB SWAP1 REVERT JUMPDEST JUMP JUMPDEST PUSH1 0x40 MLOAD PUSH4 0x95EA7B3 PUSH1 0xE0 SHL PUSH0 DUP2 DUP2 MSTORE PUSH1 0x1 PUSH1 0x1 PUSH1 0xA0 SHL SUB DUP7 AND PUSH1 0x4 MSTORE PUSH1 0x24 DUP6 SWAP1 MSTORE SWAP2 PUSH1 0x20 DUP4 PUSH1 0x44 DUP2 DUP1 DUP12 GAS CALL SWAP3 POP PUSH1 0x1 PUSH0 MLOAD EQ DUP4 AND PUSH2 0x666 JUMPI DUP4 DUP4 ISZERO AND ISZERO PUSH2 0x65A JUMPI RETURNDATASIZE PUSH0 DUP3 RETURNDATACOPY RETURNDATASIZE DUP2 REVERT JUMPDEST PUSH0 DUP8 EXTCODESIZE GT RETURNDATASIZE ISZERO AND DUP4 AND SWAP3 POP JUMPDEST PUSH1 0x40 MSTORE POP SWAP5 SWAP4 POP POP POP POP JUMP JUMPDEST PUSH0 PUSH0 PUSH0 PUSH1 0x60 DUP5 DUP7 SUB SLT ISZERO PUSH2 0x684 JUMPI PUSH0 PUSH0 REVERT JUMPDEST DUP4 CALLDATALOAD SWAP3 POP PUSH1 0x20 DUP5 ADD CALLDATALOAD SWAP2 POP PUSH1 0x40 DUP5 ADD CALLDATALOAD PUSH4 0xFFFFFFFF DUP2 AND DUP2 EQ PUSH2 0x6A5 JUMPI PUSH0 PUSH0 REVERT JUMPDEST DUP1 SWAP2 POP POP SWAP3 POP SWAP3 POP SWAP3 JUMP JUMPDEST PUSH0 PUSH1 0x20 DUP3 DUP5 SUB SLT ISZERO PUSH2 0x6C0 JUMPI PUSH0 PUSH0 REVERT JUMPDEST POP MLOAD SWAP2 SWAP1 POP JUMP JUMPDEST DUP9 DUP2 MSTORE PUSH4 0xFFFFFFFF DUP9 AND PUSH1 0x20 DUP3 ADD MSTORE DUP7 PUSH1 0x40 DUP3 ADD MSTORE PUSH1 0x1 DUP1 PUSH1 0xA0 SHL SUB DUP7 AND PUSH1 0x60 DUP3 ADD MSTORE DUP5 PUSH1 0x80 DUP3 ADD MSTORE DUP4 PUSH1 0xA0 DUP3 ADD MSTORE PUSH4 0xFFFFFFFF DUP4 AND PUSH1 0xC0 DUP3 ADD MSTORE PUSH2 0x100 PUSH1 0xE0 DUP3 ADD MSTORE PUSH0 DUP3 MLOAD DUP1 PUSH2 0x100 DUP5 ADD MSTORE DUP1 PUSH1 0x20 DUP6 ADD PUSH2 0x120 DUP6 ADD MCOPY PUSH0 PUSH2 0x120 DUP3 DUP6 ADD ADD MSTORE PUSH2 0x120 PUSH1 0x1F NOT PUSH1 0x1F DUP4 ADD AND DUP5 ADD ADD SWAP2 POP POP SWAP10 SWAP9 POP POP POP POP POP POP POP POP POP JUMP INVALID LOG2 PUSH5 0x6970667358 0x22 SLT KECCAK256 0xB7 PUSH13 0x50A6E2D835A1079F67DE279F46 0xD3 CALLDATASIZE 0x22 PUSH9 0xB2A2DAA5B5E1A88BE1 PUSH26 0xFF8E9164736F6C634300081C0033000000000000000000000000 "
        },
        "methodIdentifiers": {
          "DESTINATION_CALLER()": "62cef4b9",
          "ETHEREUM_DESTINATION_DOMAIN()": "acef1c57",
          "ethereumMintRecipient()": "09bdf150",
          "FORWARD_HOOK_DATA()": "c6db9c87",
          "mintRecipientBytes32()": "c74ee957",
          "sweepUsdc(uint256,uint256,uint32)": "dccf9846",
          "tokenMessenger()": "46117830",
          "usdc()": "3e413bee"
        }
      }
    }
  }
}